{
  "contractName": "e2pEscrow",
  "abi": [
    {
      "constant": false,
      "inputs": [],
      "name": "stop",
      "outputs": [],
      "payable": false,
      "stateMutability": "nonpayable",
      "type": "function"
    },
    {
      "constant": true,
      "inputs": [],
      "name": "commissionToWithdraw",
      "outputs": [
        {
          "name": "",
          "type": "uint256"
        }
      ],
      "payable": false,
      "stateMutability": "view",
      "type": "function"
    },
    {
      "constant": false,
      "inputs": [],
      "name": "unpause",
      "outputs": [],
      "payable": false,
      "stateMutability": "nonpayable",
      "type": "function"
    },
    {
      "constant": true,
      "inputs": [],
      "name": "paused",
      "outputs": [
        {
          "name": "",
          "type": "bool"
        }
      ],
      "payable": false,
      "stateMutability": "view",
      "type": "function"
    },
    {
      "constant": true,
      "inputs": [],
      "name": "commissionFee",
      "outputs": [
        {
          "name": "",
          "type": "uint256"
        }
      ],
      "payable": false,
      "stateMutability": "view",
      "type": "function"
    },
    {
      "constant": true,
      "inputs": [],
      "name": "stopped",
      "outputs": [
        {
          "name": "",
          "type": "bool"
        }
      ],
      "payable": false,
      "stateMutability": "view",
      "type": "function"
    },
    {
      "constant": false,
      "inputs": [],
      "name": "pause",
      "outputs": [],
      "payable": false,
      "stateMutability": "nonpayable",
      "type": "function"
    },
    {
      "constant": true,
      "inputs": [],
      "name": "owner",
      "outputs": [
        {
          "name": "",
          "type": "address"
        }
      ],
      "payable": false,
      "stateMutability": "view",
      "type": "function"
    },
    {
      "inputs": [
        {
          "name": "_commissionFee",
          "type": "uint256"
        }
      ],
      "payable": false,
      "stateMutability": "nonpayable",
      "type": "constructor"
    },
    {
      "payable": true,
      "stateMutability": "payable",
      "type": "fallback"
    },
    {
      "anonymous": false,
      "inputs": [
        {
          "indexed": true,
          "name": "sender",
          "type": "address"
        },
        {
          "indexed": true,
          "name": "transitAddress",
          "type": "address"
        },
        {
          "indexed": false,
          "name": "amount",
          "type": "uint256"
        },
        {
          "indexed": false,
          "name": "commission",
          "type": "uint256"
        }
      ],
      "name": "LogDeposit",
      "type": "event"
    },
    {
      "anonymous": false,
      "inputs": [
        {
          "indexed": true,
          "name": "sender",
          "type": "address"
        },
        {
          "indexed": true,
          "name": "transitAddress",
          "type": "address"
        }
      ],
      "name": "LogCancel",
      "type": "event"
    },
    {
      "anonymous": false,
      "inputs": [
        {
          "indexed": true,
          "name": "sender",
          "type": "address"
        },
        {
          "indexed": true,
          "name": "transitAddress",
          "type": "address"
        },
        {
          "indexed": true,
          "name": "recipient",
          "type": "address"
        },
        {
          "indexed": false,
          "name": "amount",
          "type": "uint256"
        }
      ],
      "name": "LogWithdraw",
      "type": "event"
    },
    {
      "anonymous": false,
      "inputs": [
        {
          "indexed": false,
          "name": "commissionAmount",
          "type": "uint256"
        }
      ],
      "name": "LogWithdrawCommission",
      "type": "event"
    },
    {
      "anonymous": false,
      "inputs": [
        {
          "indexed": false,
          "name": "oldCommissionFee",
          "type": "uint256"
        },
        {
          "indexed": false,
          "name": "newCommissionFee",
          "type": "uint256"
        }
      ],
      "name": "LogChangeFixedCommissionFee",
      "type": "event"
    },
    {
      "anonymous": false,
      "inputs": [],
      "name": "Stop",
      "type": "event"
    },
    {
      "anonymous": false,
      "inputs": [],
      "name": "Pause",
      "type": "event"
    },
    {
      "anonymous": false,
      "inputs": [],
      "name": "Unpause",
      "type": "event"
    },
    {
      "constant": false,
      "inputs": [
        {
          "name": "_transitAddress",
          "type": "address"
        }
      ],
      "name": "deposit",
      "outputs": [
        {
          "name": "",
          "type": "bool"
        }
      ],
      "payable": true,
      "stateMutability": "payable",
      "type": "function"
    },
    {
      "constant": false,
      "inputs": [
        {
          "name": "_newCommissionFee",
          "type": "uint256"
        }
      ],
      "name": "changeFixedCommissionFee",
      "outputs": [
        {
          "name": "success",
          "type": "bool"
        }
      ],
      "payable": false,
      "stateMutability": "nonpayable",
      "type": "function"
    },
    {
      "constant": false,
      "inputs": [],
      "name": "withdrawCommission",
      "outputs": [
        {
          "name": "success",
          "type": "bool"
        }
      ],
      "payable": false,
      "stateMutability": "nonpayable",
      "type": "function"
    },
    {
      "constant": true,
      "inputs": [
        {
          "name": "_transitAddress",
          "type": "address"
        }
      ],
      "name": "getTransfer",
      "outputs": [
        {
          "name": "id",
          "type": "address"
        },
        {
          "name": "from",
          "type": "address"
        },
        {
          "name": "amount",
          "type": "uint256"
        }
      ],
      "payable": false,
      "stateMutability": "view",
      "type": "function"
    },
    {
      "constant": false,
      "inputs": [
        {
          "name": "_transitAddress",
          "type": "address"
        }
      ],
      "name": "cancelTransfer",
      "outputs": [
        {
          "name": "success",
          "type": "bool"
        }
      ],
      "payable": false,
      "stateMutability": "nonpayable",
      "type": "function"
    },
    {
      "constant": true,
      "inputs": [
        {
          "name": "_transitAddress",
          "type": "address"
        },
        {
          "name": "_recipient",
          "type": "address"
        },
        {
          "name": "_v",
          "type": "uint8"
        },
        {
          "name": "_r",
          "type": "bytes32"
        },
        {
          "name": "_s",
          "type": "bytes32"
        }
      ],
      "name": "verifyTransferSignature",
      "outputs": [
        {
          "name": "success",
          "type": "bool"
        }
      ],
      "payable": false,
      "stateMutability": "pure",
      "type": "function"
    },
    {
      "constant": false,
      "inputs": [
        {
          "name": "_transitAddress",
          "type": "address"
        },
        {
          "name": "_recipient",
          "type": "address"
        },
        {
          "name": "_v",
          "type": "uint8"
        },
        {
          "name": "_r",
          "type": "bytes32"
        },
        {
          "name": "_s",
          "type": "bytes32"
        }
      ],
      "name": "withdraw",
      "outputs": [
        {
          "name": "success",
          "type": "bool"
        }
      ],
      "payable": false,
      "stateMutability": "nonpayable",
      "type": "function"
    }
  ],
  "bytecode": "0x608060405260008060146101000a81548160ff02191690831515021790555060008060156101000a81548160ff02191690831515021790555034801561004457600080fd5b5060405160208061138083398101806040528101908080519060200190929190505050336000806101000a81548173ffffffffffffffffffffffffffffffffffffffff021916908373ffffffffffffffffffffffffffffffffffffffff16021790555080600181905550506112c2806100be6000396000f3006080604052600436106100db576000357c0100000000000000000000000000000000000000000000000000000000900463ffffffff16806307da68f5146100e05780630ee2b0e6146100f75780633e25e837146101225780633f4ba83a146101515780635ac3835d146101685780635c975abb1461020c5780636fb1eb0c1461023b5780637297be7f1461026657806375f12b21146102ab5780638456cb59146102da5780638bdc5a5f146102f15780638da5cb5b14610395578063a7c1e629146103ec578063db0d517514610447578063f340fa0114610504575b600080fd5b3480156100ec57600080fd5b506100f5610552565b005b34801561010357600080fd5b5061010c610612565b6040518082815260200191505060405180910390f35b34801561012e57600080fd5b50610137610618565b604051808215151515815260200191505060405180910390f35b34801561015d57600080fd5b506101666106eb565b005b34801561017457600080fd5b506101f2600480360381019080803573ffffffffffffffffffffffffffffffffffffffff169060200190929190803573ffffffffffffffffffffffffffffffffffffffff169060200190929190803560ff169060200190929190803560001916906020019092919080356000191690602001909291905050506107a9565b604051808215151515815260200191505060405180910390f35b34801561021857600080fd5b506102216107c3565b604051808215151515815260200191505060405180910390f35b34801561024757600080fd5b506102506107d6565b6040518082815260200191505060405180910390f35b34801561027257600080fd5b50610291600480360381019080803590602001909291905050506107dc565b604051808215151515815260200191505060405180910390f35b3480156102b757600080fd5b506102c06108c9565b604051808215151515815260200191505060405180910390f35b3480156102e657600080fd5b506102ef6108dc565b005b3480156102fd57600080fd5b5061037b600480360381019080803573ffffffffffffffffffffffffffffffffffffffff169060200190929190803573ffffffffffffffffffffffffffffffffffffffff169060200190929190803560ff1690602001909291908035600019169060200190929190803560001916906020019092919050505061099c565b604051808215151515815260200191505060405180910390f35b3480156103a157600080fd5b506103aa610c41565b604051808273ffffffffffffffffffffffffffffffffffffffff1673ffffffffffffffffffffffffffffffffffffffff16815260200191505060405180910390f35b3480156103f857600080fd5b5061042d600480360381019080803573ffffffffffffffffffffffffffffffffffffffff169060200190929190505050610c66565b604051808215151515815260200191505060405180910390f35b34801561045357600080fd5b50610488600480360381019080803573ffffffffffffffffffffffffffffffffffffffff169060200190929190505050610e2f565b604051808473ffffffffffffffffffffffffffffffffffffffff1673ffffffffffffffffffffffffffffffffffffffff1681526020018373ffffffffffffffffffffffffffffffffffffffff1673ffffffffffffffffffffffffffffffffffffffff168152602001828152602001935050505060405180910390f35b610538600480360381019080803573ffffffffffffffffffffffffffffffffffffffff169060200190929190505050610f01565b604051808215151515815260200191505060405180910390f35b6000809054906101000a900473ffffffffffffffffffffffffffffffffffffffff1673ffffffffffffffffffffffffffffffffffffffff163373ffffffffffffffffffffffffffffffffffffffff161415156105ad57600080fd5b600060159054906101000a900460ff161515156105c957600080fd5b6001600060156101000a81548160ff0219169083151502179055507fbedf0f4abfe86d4ffad593d9607fe70e83ea706033d44d24b3b6283cf3fc4f6b60405160405180910390a1565b60025481565b600080600060149054906101000a900460ff1615151561063757600080fd5b600254905060006002819055506000809054906101000a900473ffffffffffffffffffffffffffffffffffffffff1673ffffffffffffffffffffffffffffffffffffffff166108fc829081150290604051600060405180830381858888f193505050501580156106ab573d6000803e3d6000fd5b507f3edf228d54016de2c57c145318c98467681be853eb40b70bc72ffd795550aa26816040518082815260200191505060405180910390a1600191505090565b6000809054906101000a900473ffffffffffffffffffffffffffffffffffffffff1673ffffffffffffffffffffffffffffffffffffffff163373ffffffffffffffffffffffffffffffffffffffff1614151561074657600080fd5b600060149054906101000a900460ff16151561076157600080fd5b60008060146101000a81548160ff0219169083151502179055507f7805862f689e2f13df9f062ff482ad3ad112aca9e0847911ed832e158c525b3360405160405180910390a1565b60006107b886868686866110f0565b905095945050505050565b600060149054906101000a900460ff1681565b60015481565b600080600060149054906101000a900460ff161515156107fb57600080fd5b600060159054906101000a900460ff1615151561081757600080fd5b6000809054906101000a900473ffffffffffffffffffffffffffffffffffffffff1673ffffffffffffffffffffffffffffffffffffffff163373ffffffffffffffffffffffffffffffffffffffff1614151561087257600080fd5b6001549050826001819055507f9f43d788b36e7b67ff4c6a52197dfb4a40cce888efd52a5a7240c1276c85adbf81600154604051808381526020018281526020019250505060405180910390a16001915050919050565b600060159054906101000a900460ff1681565b6000809054906101000a900473ffffffffffffffffffffffffffffffffffffffff1673ffffffffffffffffffffffffffffffffffffffff163373ffffffffffffffffffffffffffffffffffffffff1614151561093757600080fd5b600060149054906101000a900460ff1615151561095357600080fd5b6001600060146101000a81548160ff0219169083151502179055507f6985a02210a168e66602d3235cb6db0e70f92b3ba4d376a33c0f3d9434bff62560405160405180910390a1565b60006109a6611266565b6000809054906101000a900473ffffffffffffffffffffffffffffffffffffffff1673ffffffffffffffffffffffffffffffffffffffff163373ffffffffffffffffffffffffffffffffffffffff16141515610a0157600080fd5b600060149054906101000a900460ff16151515610a1d57600080fd5b600060159054906101000a900460ff16151515610a3957600080fd5b600360008873ffffffffffffffffffffffffffffffffffffffff1673ffffffffffffffffffffffffffffffffffffffff1681526020019081526020016000206040805190810160405290816000820160009054906101000a900473ffffffffffffffffffffffffffffffffffffffff1673ffffffffffffffffffffffffffffffffffffffff1673ffffffffffffffffffffffffffffffffffffffff1681526020016001820154815250509050610af287878787876110f0565b508573ffffffffffffffffffffffffffffffffffffffff166108fc82602001519081150290604051600060405180830381858888f19350505050158015610b3d573d6000803e3d6000fd5b508573ffffffffffffffffffffffffffffffffffffffff16816000015173ffffffffffffffffffffffffffffffffffffffff168873ffffffffffffffffffffffffffffffffffffffff167faa5b60cdfa493767441e10be5daea291b831cb9faa638ebf160d434588d7ecbd84602001516040518082815260200191505060405180910390a4600360008873ffffffffffffffffffffffffffffffffffffffff1673ffffffffffffffffffffffffffffffffffffffff168152602001908152602001600020600080820160006101000a81549073ffffffffffffffffffffffffffffffffffffffff021916905560018201600090555050600191505095945050505050565b6000809054906101000a900473ffffffffffffffffffffffffffffffffffffffff1681565b6000610c70611266565b600360008473ffffffffffffffffffffffffffffffffffffffff1673ffffffffffffffffffffffffffffffffffffffff1681526020019081526020016000206040805190810160405290816000820160009054906101000a900473ffffffffffffffffffffffffffffffffffffffff1673ffffffffffffffffffffffffffffffffffffffff1673ffffffffffffffffffffffffffffffffffffffff1681526020016001820154815250509050806000015173ffffffffffffffffffffffffffffffffffffffff163373ffffffffffffffffffffffffffffffffffffffff16141515610d5a57600080fd5b8273ffffffffffffffffffffffffffffffffffffffff163373ffffffffffffffffffffffffffffffffffffffff167fbadeab042d3a4137cdc34a05ee0e698eb9bb91cea276c79d4c8cafeeee302a3760405160405180910390a3600360008473ffffffffffffffffffffffffffffffffffffffff1673ffffffffffffffffffffffffffffffffffffffff168152602001908152602001600020600080820160006101000a81549073ffffffffffffffffffffffffffffffffffffffff0219169055600182016000905550506001915050919050565b6000806000610e3c611266565b600360008673ffffffffffffffffffffffffffffffffffffffff1673ffffffffffffffffffffffffffffffffffffffff1681526020019081526020016000206040805190810160405290816000820160009054906101000a900473ffffffffffffffffffffffffffffffffffffffff1673ffffffffffffffffffffffffffffffffffffffff1673ffffffffffffffffffffffffffffffffffffffff16815260200160018201548152505090508481600001518260200151935093509350509193909250565b60008060149054906101000a900460ff16151515610f1e57600080fd5b600060159054906101000a900460ff16151515610f3a57600080fd5b6000600360008473ffffffffffffffffffffffffffffffffffffffff1673ffffffffffffffffffffffffffffffffffffffff16815260200190815260200160002060010154141515610f8b57600080fd5b60015434111515610f9b57600080fd5b60408051908101604052803373ffffffffffffffffffffffffffffffffffffffff168152602001610fce3460015461122f565b815250600360008473ffffffffffffffffffffffffffffffffffffffff1673ffffffffffffffffffffffffffffffffffffffff16815260200190815260200160002060008201518160000160006101000a81548173ffffffffffffffffffffffffffffffffffffffff021916908373ffffffffffffffffffffffffffffffffffffffff16021790555060208201518160010155905050611072600254600154611248565b6002819055508173ffffffffffffffffffffffffffffffffffffffff163373ffffffffffffffffffffffffffffffffffffffff167f4e3e4894f24a7c50bcb21d1ef785e34688bee05663c55d822eed7cefc253312334600154604051808381526020018281526020019250505060405180910390a360019050919050565b60008060008660405180807f19457468657265756d205369676e6564204d6573736167653a0a333200000000815250601c018273ffffffffffffffffffffffffffffffffffffffff1673ffffffffffffffffffffffffffffffffffffffff166c0100000000000000000000000002815260140191505060405180910390209150600182878787604051600081526020016040526040518085600019166000191681526020018460ff1660ff1681526020018360001916600019168152602001826000191660001916815260200194505050505060206040516020810390808403906000865af11580156111e7573d6000803e3d6000fd5b5050506020604051035190508773ffffffffffffffffffffffffffffffffffffffff168173ffffffffffffffffffffffffffffffffffffffff16149250505095945050505050565b600082821115151561123d57fe5b818303905092915050565b600080828401905083811015151561125c57fe5b8091505092915050565b6040805190810160405280600073ffffffffffffffffffffffffffffffffffffffff1681526020016000815250905600a165627a7a72305820d79354de87ff9110ebc027e680a55db9ad2afd707bc8a37ca98a0eaca6a08c570029",
  "source": "pragma solidity 0.4.23;\nimport './SafeMath.sol';\nimport './Stoppable.sol';\n\n/**\n * @title Eth2Phone Escrow Contract\n * @dev Contract allows to send ether through verifier (owner of contract).\n * \n * Only verifier can initiate withdrawal to recipient's address. \n * Verifier cannot choose recipient's address without \n * transit private key generated by sender. \n * \n * Sender is responsible to provide transit private key\n * to recipient off-chain.\n * \n * Recepient signs address to receive with transit private key and \n * provides signed address to verification server. \n * (See VerifyTransferSignature method for details.)\n * \n * Verifier verifies off-chain the recipient in accordance with verification \n * conditions (e.g., phone ownership via SMS authentication) and initiates\n * withdrawal to the address provided by recipient.\n * (See withdraw method for details.)\n * \n * Verifier charges commission for it's services.\n * \n * Sender is able to cancel transfer if it's not yet cancelled or withdrawn\n * by recipient.\n * (See cancelTransfer method for details.)\n */\ncontract e2pEscrow is Stoppable, SafeMath {\n\n  // fixed amount of wei accrued to verifier with each transfer\n  uint public commissionFee;\n\n  // verifier can withdraw this amount from smart-contract\n  uint public commissionToWithdraw; // in wei\n\n  /*\n   * EVENTS\n   */\n  event LogDeposit(\n\t\t   address indexed sender,\n\t\t   address indexed transitAddress,\n\t\t   uint amount,\n\t\t      uint commission\n\t\t   );\n\n  event LogCancel(\n\t\t  address indexed sender,\n\t\t          address indexed transitAddress\n\t\t  );\n\n  event LogWithdraw(\n\t\t    address indexed sender,\n\t\t    address indexed transitAddress,\n\t\t    address indexed recipient,\n\t\t        uint amount\n\t\t    );\n\n  event LogWithdrawCommission(uint commissionAmount);\n\n  event LogChangeFixedCommissionFee(\n\t\t\t\t    uint oldCommissionFee,\n\t\t\t\t         uint newCommissionFee\n\t\t\t\t    );\n\n  struct Transfer {\n    address from;\n    uint amount; // in wei\n  }\n\n  // Mappings of transitAddress => Transfer Struct\n  mapping (address => Transfer) transferDct;\n\n\n  /**\n   * @dev Contructor that sets msg.sender as owner (verifier) in Ownable\n   * and sets verifier's fixed commission fee.\n   * @param _commissionFee uint Verifier's fixed commission for each transfer\n   */\n  constructor(uint _commissionFee) public {\n    commissionFee = _commissionFee;\n  }\n\n\n  /**\n   * @dev Deposit ether to smart-contract and create transfer.\n   * Transit address is assigned to transfer by sender. \n   * Recipient should sign withrawal address with the transit private key \n   * \n   * @param _transitAddress transit address assigned to transfer.\n   * @return True if success.\n   */\n  function deposit(address _transitAddress)\n                            public\n                            whenNotPaused\n                            whenNotStopped\n                            payable\n    returns(bool)\n  {\n    // can not override existing transfer\n    require(transferDct[_transitAddress].amount == 0);\n\n    require(msg.value > commissionFee);\n\n    // saving transfer details\n    transferDct[_transitAddress] = Transfer(\n\t\t\t\t\t    msg.sender,\n\t\t\t\t\t    safeSub(msg.value, commissionFee)//amount = msg.value - comission\n\t\t\t\t\t    );\n\n    // accrue verifier's commission\n    commissionToWithdraw = safeAdd(commissionToWithdraw, commissionFee);\n\n    // log deposit event\n    emit LogDeposit(msg.sender, _transitAddress, msg.value, commissionFee);\n    return true;\n  }\n\n  /**\n   * @dev Change verifier's fixed commission fee.\n   * Only owner can change commision fee.\n   * \n   * @param _newCommissionFee uint New verifier's fixed commission\n   * @return True if success.\n   */\n  function changeFixedCommissionFee(uint _newCommissionFee)\n                          public\n                          whenNotPaused\n                          whenNotStopped\n                          onlyOwner\n    returns(bool success)\n  {\n    uint oldCommissionFee = commissionFee;\n    commissionFee = _newCommissionFee;\n    emit LogChangeFixedCommissionFee(oldCommissionFee, commissionFee);\n    return true;\n  }\n\n  /**\n   * @dev Transfer accrued commission to verifier's address.\n   * @return True if success.\n   */\n  function withdrawCommission()\n                        public\n                        whenNotPaused\n    returns(bool success)\n  {\n    uint commissionToTransfer = commissionToWithdraw;\n    commissionToWithdraw = 0;\n    owner.transfer(commissionToTransfer); // owner is verifier\n\n    emit LogWithdrawCommission(commissionToTransfer);\n    return true;\n  }\n\n  /**\n   * @dev Get transfer details.\n   * @param _transitAddress transit address assigned to transfer\n   * @return Transfer details (id, sender, amount)\n   */\n  function getTransfer(address _transitAddress)\n            public\n            constant\n    returns (\n\t     address id,\n\t     address from, // transfer sender\n\t     uint amount) // in wei\n  {\n    Transfer memory transfer = transferDct[_transitAddress];\n    return (\n\t    _transitAddress,\n\t    transfer.from,\n\t        transfer.amount\n\t    );\n  }\n\n\n  /**\n   * @dev Cancel transfer and get sent ether back. Only transfer sender can\n   * cancel transfer.\n   * @param _transitAddress transit address assigned to transfer\n   * @return True if success.\n   */\n  function cancelTransfer(address _transitAddress) public returns (bool success) {\n    Transfer memory transferOrder = transferDct[_transitAddress];\n\n    // only sender can cancel transfer;\n    require(msg.sender == transferOrder.from);\n\n    // log cancel event\n    emit LogCancel(msg.sender, _transitAddress);\n\n    delete transferDct[_transitAddress];\n\n    return true;\n  }\n\n  /**\n   * @dev Verify that address is signed with correct verification private key.\n   * @param _transitAddress transit address assigned to transfer\n   * @param _recipient address Signed address.\n   * @param _v ECDSA signature parameter v.\n   * @param _r ECDSA signature parameters r.\n   * @param _s ECDSA signature parameters s.\n   * @return True if signature is correct.\n   */\n  function verifySignature(\n\t\t\t   address _transitAddress,\n\t\t\t   address _recipient,\n\t\t\t   uint8 _v,\n\t\t\t   bytes32 _r,\n\t\t\t   bytes32 _s)\n    private pure returns(bool success)\n  {\n    bytes32 prefixedHash = keccak256(\"\\x19Ethereum Signed Message:\\n32\", _recipient);\n    address retAddr = ecrecover(prefixedHash, _v, _r, _s);\n    return retAddr == _transitAddress;\n  }\n\n  /**\n   * @dev Verify that address is signed with correct private key for\n   * verification public key assigned to transfer.\n   * @param _transitAddress transit address assigned to transfer\n   * @param _recipient address Signed address.\n   * @param _v ECDSA signature parameter v.\n   * @param _r ECDSA signature parameters r.\n   * @param _s ECDSA signature parameters s.\n   * @return True if signature is correct.\n   */\n  function verifyTransferSignature(\n\t\t\t\t   address _transitAddress,\n\t\t\t\t   address _recipient,\n\t\t\t\t   uint8 _v,\n\t\t\t\t   bytes32 _r,\n\t\t\t\t   bytes32 _s)\n    public pure returns(bool success)\n  {\n    return (verifySignature(_transitAddress,\n\t\t\t    _recipient, _v, _r, _s));\n  }\n\n  /**\n   * @dev Withdraw transfer to recipient's address if it is correctly signed\n   * with private key for verification public key assigned to transfer.\n   * \n   * @param _transitAddress transit address assigned to transfer\n   * @param _recipient address Signed address.\n   * @param _v ECDSA signature parameter v.\n   * @param _r ECDSA signature parameters r.\n   * @param _s ECDSA signature parameters s.\n   * @return True if success.\n   */\n  function withdraw(\n\t\t    address _transitAddress,\n\t\t    address _recipient,\n\t\t    uint8 _v,\n\t\t    bytes32 _r,\n\t\t    bytes32 _s\n\t\t    )\n    public\n    onlyOwner // only through verifier can withdraw transfer;\n            whenNotPaused\n            whenNotStopped\n    returns (bool success)\n  {\n    Transfer memory transferOrder = transferDct[_transitAddress];\n\n    // verifying signature\n    (verifySignature(_transitAddress,\n\t\t     _recipient, _v, _r, _s ));\n\n    // transfer ether to recipient's address\n    _recipient.transfer(transferOrder.amount);\n\n    // log withdraw event\n    emit LogWithdraw(_transitAddress, transferOrder.from, _recipient, transferOrder.amount);\n\n    delete transferDct[_transitAddress];\n\n    return true;\n  }\n\n\n  // fallback function - do not receive ether by default\n  function() public payable {\n    revert();\n  }\n}\n",
  "sourcePath": "/Users/mikhail/Documents/soft/eth2phone/eth2phone-personal/contracts/e2pEscrow.sol",
  "compiler": {
    "name": "solc",
    "version": "0.4.23+commit.124ca40d.Emscripten.clang"
  },
  "schemaVersion": "2.0.0",
  "updatedAt": "2018-04-29T22:42:18.217Z"
}