{
  "contractName": "Stoppable",
  "abi": [
    {
      "constant": false,
      "inputs": [],
      "name": "unpause",
      "outputs": [],
      "payable": false,
      "stateMutability": "nonpayable",
      "type": "function"
    },
    {
      "constant": true,
      "inputs": [],
      "name": "paused",
      "outputs": [
        {
          "name": "",
          "type": "bool"
        }
      ],
      "payable": false,
      "stateMutability": "view",
      "type": "function"
    },
    {
      "constant": true,
      "inputs": [],
      "name": "stopped",
      "outputs": [
        {
          "name": "",
          "type": "bool"
        }
      ],
      "payable": false,
      "stateMutability": "view",
      "type": "function"
    },
    {
      "constant": false,
      "inputs": [],
      "name": "pause",
      "outputs": [],
      "payable": false,
      "stateMutability": "nonpayable",
      "type": "function"
    },
    {
      "constant": true,
      "inputs": [],
      "name": "owner",
      "outputs": [
        {
          "name": "",
          "type": "address"
        }
      ],
      "payable": false,
      "stateMutability": "view",
      "type": "function"
    },
    {
      "anonymous": false,
      "inputs": [],
      "name": "Stop",
      "type": "event"
    },
    {
      "anonymous": false,
      "inputs": [],
      "name": "Pause",
      "type": "event"
    },
    {
      "anonymous": false,
      "inputs": [],
      "name": "Unpause",
      "type": "event"
    },
    {
      "constant": false,
      "inputs": [],
      "name": "stop",
      "outputs": [],
      "payable": false,
      "stateMutability": "nonpayable",
      "type": "function"
    }
  ],
  "bytecode": "0x608060405260008060146101000a81548160ff02191690831515021790555060008060156101000a81548160ff021916908315150217905550336000806101000a81548173ffffffffffffffffffffffffffffffffffffffff021916908373ffffffffffffffffffffffffffffffffffffffff16021790555061042c806100876000396000f300608060405260043610610078576000357c0100000000000000000000000000000000000000000000000000000000900463ffffffff16806307da68f51461007d5780633f4ba83a146100945780635c975abb146100ab57806375f12b21146100da5780638456cb59146101095780638da5cb5b14610120575b600080fd5b34801561008957600080fd5b50610092610177565b005b3480156100a057600080fd5b506100a9610237565b005b3480156100b757600080fd5b506100c06102f5565b604051808215151515815260200191505060405180910390f35b3480156100e657600080fd5b506100ef610308565b604051808215151515815260200191505060405180910390f35b34801561011557600080fd5b5061011e61031b565b005b34801561012c57600080fd5b506101356103db565b604051808273ffffffffffffffffffffffffffffffffffffffff1673ffffffffffffffffffffffffffffffffffffffff16815260200191505060405180910390f35b6000809054906101000a900473ffffffffffffffffffffffffffffffffffffffff1673ffffffffffffffffffffffffffffffffffffffff163373ffffffffffffffffffffffffffffffffffffffff161415156101d257600080fd5b600060159054906101000a900460ff161515156101ee57600080fd5b6001600060156101000a81548160ff0219169083151502179055507fbedf0f4abfe86d4ffad593d9607fe70e83ea706033d44d24b3b6283cf3fc4f6b60405160405180910390a1565b6000809054906101000a900473ffffffffffffffffffffffffffffffffffffffff1673ffffffffffffffffffffffffffffffffffffffff163373ffffffffffffffffffffffffffffffffffffffff1614151561029257600080fd5b600060149054906101000a900460ff1615156102ad57600080fd5b60008060146101000a81548160ff0219169083151502179055507f7805862f689e2f13df9f062ff482ad3ad112aca9e0847911ed832e158c525b3360405160405180910390a1565b600060149054906101000a900460ff1681565b600060159054906101000a900460ff1681565b6000809054906101000a900473ffffffffffffffffffffffffffffffffffffffff1673ffffffffffffffffffffffffffffffffffffffff163373ffffffffffffffffffffffffffffffffffffffff1614151561037657600080fd5b600060149054906101000a900460ff1615151561039257600080fd5b6001600060146101000a81548160ff0219169083151502179055507f6985a02210a168e66602d3235cb6db0e70f92b3ba4d376a33c0f3d9434bff62560405160405180910390a1565b6000809054906101000a900473ffffffffffffffffffffffffffffffffffffffff16815600a165627a7a7230582061f51e03ebc3df5d20833d3acf5d82d9ce01faa136d9b56586a0d169c76744900029",
  "source": "pragma solidity ^0.4.23;\n\nimport './Pausable.sol';\n\n\n/**\n * @title Stoppable\n * @dev Base contract which allows children to implement final irreversible stop mechanism.\n */\ncontract Stoppable is Pausable {\n  event Stop();\n\n  bool public stopped = false;\n\n\n  /**\n   * @dev Modifier to make a function callable only when the contract is not stopped.\n   */\n  modifier whenNotStopped() {\n    require(!stopped);\n    _;\n  }\n\n  /**\n   * @dev Modifier to make a function callable only when the contract is stopped.\n   */\n  modifier whenStopped() {\n    require(stopped);\n    _;\n  }\n\n  /**\n   * @dev called by the owner to pause, triggers stopped state\n   */\n  function stop() public onlyOwner whenNotStopped {\n    stopped = true;\n    emit Stop();\n  }\n}\n",
  "sourcePath": "/Users/mikhail/Documents/soft/eth2phone/eth2phone-personal/contracts/Stoppable.sol",
  "compiler": {
    "name": "solc",
    "version": "0.4.23+commit.124ca40d.Emscripten.clang"
  },
  "schemaVersion": "2.0.0",
  "updatedAt": "2018-04-29T22:42:18.217Z"
}